:020000042000DA
:10000000554F5343000101000300000000000000B1
:1000100057000020AB0000203106002033060020EE
:100020004B0000204D00002035060020000000009D
:1000300000000000000000000000000000000000C0
:04004000710A002021
:100048007047704770477047704770477047104B4C
:10005800104A2DE9F041884607460021934202D014
:1000680003F8011FFAE70C4B0C4CE41AA410002506
:100078001E46A54205D056F8253003B198470135EC
:10008800F7E74146384600F00BF8BDE8F08100BFBD
:10009800870A0020870C0020400000204400002030
:1000A80070472DE9F04785882DED108B2D12ECB2A5
:1000B80007EE904A8AB00746B8EE670A884601926A
:1000C80000F0DAFC3B799D49DFED9D6A9FED9D6A62
:1000D800019A0134962D07EE903AE3B2C8BF9725EE
:1000E800962B88BF9723F8EEE77A01EB830301EBA1
:1000F800850567EEA67A95ED007AD3ED006A924BF6
:1001080076EEC76A93ED7C5AA7EEA67A03F5CA760F
:1001180003F5D670F7EE006AF0EE477A9FED8B7A1A
:10012800F4EEC77AF1EE10FAB8BFB0EE677ADFEDF9
:10013800887A67EE277A93ED7E7AC3ED6E7A27EE9A
:10014800066A3146F0EE664AB0EE083AF1EE453AF4
:10015800C6EE835A0831B0EE644AA3EEA54AF0EE23
:10016800462AE7EE842AB0EE644AA5EE254AC1ED98
:10017800082AF0EE445AB0EE464AA7EEA54A76EEB3
:10018800A46A81ED094A8842E2D1D3ED7F6A9FEDE6
:10019800715A7149B7EE006A27EE055A86EE267A3B
:1001A800A1F11C00F0EE452AE7EEA62AA7EE875A31
:1001B800D7ED007AC3ED752AFAEEE07A03AF83ED46
:1001C800765AC3ED777A3C4650F8045B44F8045BF2
:1001D8008142F9D107EE102A93ED784A5F4C9FEDE2
:1001E800601AD3ED6C5A93ED6D6A93ED792AD3EDCD
:1001F8007A1AD3ED7B3A93ED7D8ADFED5A8A9FED2B
:100208005A9ADFED5A9A9FED5AAADFED5AAA9FED46
:100218005ABADFED5ABA77EEC47AB8EE477A08EBE5
:100228008202C7EE870AFCEEC07AB0EE413ACDED05
:10023800017ABDF8040000EBC01004EB800000F563
:100248000175904500F0DC8174EE087AF7EE00CA7B
:10025800F5EEC07AF1EE10FAB8BFF0EE687A37EE34
:10026800E47ADDED036AB5EE407AF1EE10FAA8BF44
:10027800F0EE6C7A27EE8A7A27EEAACAB0EE69DA2F
:10028800A7EE27CA0DF11009BCEEE67AA7EE89DAC7
:10029800B8EE477A3CEE0BCA36EEC77AFCEEC06A77
:1002A80027EE017ACDED016AFCEEC77A17EE90CA07
:1002B800BCF17F0F87BF0CF07F04C4F1800EE646C7
:1002C8000CF101044FEA8E0E88BFC4F17F0400EBE5
:1002D8000E0C4FEA8404F8EE677ADCED00DA00EBE6
:1002E800040C77EE677A9CED007A37EE6D7AAE44AF
:1002F8002C44E7EE87DAD4ED006A9EED007A9DF88B
:1003080004E076EEC76A88BFFFEE00CAA7EEA67AB9
:100318000EEE90EA67EE2C6AF8EEEEEAEDEEEC6A85
:100328000DF1280E70EE6EEA9FED0E7A66EEAE6A5B
:10033800EDEEAC6A66EE8D6A22E000BF00F10008BF
:100348008180803B3EC3AE36880A002049FFB8460C
:100358003EC3AE3717B75136380C0020B81D010818
:100368000000804300000000A9BC0DBF19737F3F47
:10037800FAD53CBF645DA43F452FE33EABAA2A3EB5
:10038800F9EC01CABCEEECDAB8EE4DDA3CEECDDAA7
:100398002DEE03DAFCEECD7A17EE90AABAF17F0FB4
:1003A80087BF0AF07F04C4F1800CD4460AF1010427
:1003B80088BFC4F17F044FEA8C0C00EB0C0AF8EEFE
:1003C800677A4FEA8404DAED00DA00EB040A3DEEBE
:1003D80067DADAED007A77EEED7AAC442C44EDEE8C
:1003E80027DA94ED00EADCED007A3EEE67EA98BF82
:1003F800F7EE00CAEDEE0E7A88BFFFEE00CA67EE90
:10040800AC7ACE45EDEEEC7A67EEAE7AEDEEAC7AEC
:10041800ACEE277AB4D1FCEEE57AE7EE2B6AF8EE7B
:10042800677ABFEE00CA75EEE77A67EE837ABCEEAC
:10043800E77A17EE109AB9F17F0F87BF09F07F04AA
:10044800C4F1800CCC4609F1010488BFC4F17F04D3
:100458004FEA8C0C00EB0C094FEA8404B8EE477A9B
:1004680099ED00DA00EB040937EEC77AD9ED007A86
:1004780077EECD7A2C44AC44A7EE27DAD4ED00DA37
:10048800DCED007A7DEEE7DA98BFF7EE00CAE7EE1A
:100498002D7A88BFF0EE4CCA27EEAC7AF6EE007AD9
:1004A800ADEE6C7AF0EE67DA27EE2E7AADEE2C7AA6
:1004B80034EEC2DA27EE277A62EE07CAE6EE8DCA74
:1004C800FCEEC66AF8EE666A76EE666A66EE836ADF
:1004D800BCEEE6DA1DEE109AB9F17F0F87BF09F07E
:1004E8007F04C4F1800CCC4609F1010488BFC4F133
:1004F8007F044FEA8C0C00EB0C09F8EE4D7A4FEABA
:10050800840499ED00DA00EB040976EEE77AD9ED78
:10051800006A76EECD6AAC442C44A7EEA6DA94EDD8
:1005280000FADCED006A3FEE66FA98BFB7EE00EA23
:10053800E7EE8F6A88BFBFEE00EA66EE8E7AF7EEC6
:10054800006AEDEE4E7A67EEAE7AEDEE0E7A67EE61
:10055800AD7A74EEE1DA21EEA7DAACEEADDA27EE89
:100568000D7AF0EE4DCA27EE237A34EEE3DA67EE21
:10057800AC7AACEE8D7AA3EEA77AB4EECC7AF1EE33
:1005880010FAF0EE477A07DBB4EEE67AF1EE10FAED
:10059800A8BFF0EE667A01E0FFEE007A27EEA77AB0
:1005A800F4EE006A27EEC77ADFF878C0E7EE267A1D
:1005B8003C46FEEEE07AE8EC017A94ED007AFCEC39
:1005C800017A77EE877ABCEEE77AB8EE477A77EE6B
:1005D800C77AE4EC017AA645EFD175EEA25A36EE59
:1005E800056AFCEEE57A34EE204AF8EE677A75EE95
:1005F800E75AFCEEC67AF8EE677A36EE676A20E6C6
:1006080057F8042B46F8042BB142F9D1C3ED6C5AC4
:1006180083ED6D6A83ED784A0AB0BDEC108BBDE8B6
:10062800F08700BF400C00207047704707EE901A13
:10063800072800F28F80DFE800F0041F3A555C8D30
:100648007A84F8EEE77A9FED447A67EE877AF5EEDA
:10065800C07AF1EE10FA09DBB7EE007AF4EEC77A49
:10066800F1EE10FAA8BFF0EE477A01E0DFED3B7A31
:100678003B4BC3ED797A7047F8EEE77A9FED367A0F
:1006880067EE877AF5EEC07AF1EE10FA09DBB7EE7D
:10069800007AF4EEC77AF1EE10FAA8BFF0EE477AC6
:1006A80001E0DFED2E7A2E4BC3ED7A7A7047F8EE33
:1006B800E77A9FED297A67EE877AF5EEC07AF1EE50
:1006C80010FA09DBB7EE007AF4EEC77AF1EE10FA09
:1006D800A8BFF0EE477A01E0DFED207A204BC3EDAA
:1006E8007B7A70471E4A02EB81031B68C2F8F0311F
:1006F80070474B1E032B2DD8DFE803F002080E14B9
:10070800174B4FF08042C3F8FC217047144B4FF051
:100718007F52C3F8FC217047114B4FF07D52C3F84C
:10072800FC2170470E4B0F4AC3F8FC217047F8EEC6
:10073800E77A9FED0D7A0A4B67EE877AC3ED7D7AEB
:100748007047F8EEE77A9FED087A054B67EE877AEF
:10075800C3ED7E7A704700BF0AD7233C0000000033
:10076800880A00209A99993F0820803A844641EAED
:10077800000313F003036DD1403A41D351F8043B11
:1007880040F8043B51F8043B40F8043B51F8043B63
:1007980040F8043B51F8043B40F8043B51F8043B53
:1007A80040F8043B51F8043B40F8043B51F8043B43
:1007B80040F8043B51F8043B40F8043B51F8043B33
:1007C80040F8043B51F8043B40F8043B51F8043B23
:1007D80040F8043B51F8043B40F8043B51F8043B13
:1007E80040F8043B51F8043B40F8043B51F8043B03
:1007F80040F8043B51F8043B40F8043B403ABDD272
:10080800303211D351F8043B40F8043B51F8043B13
:1008180040F8043B51F8043B40F8043B51F8043BD2
:1008280040F8043B103AEDD20C3205D351F8043BA2
:1008380040F8043B043AF9D2043208D0D2071CBF6E
:1008480011F8013B00F8013B01D30B880380604697
:10085800704700BF082A13D38B078DD010F003030D
:100868008AD0C3F10403D21ADB071CBF11F8013B7D
:1008780000F8013B80D331F8023B20F8023B7BE7CC
:10088800043AD9D3013A11F8013B00F8013BF9D2F7
:100898000B7803704B7843708B7883706046704791
:1008A8002DED048B47499FED483ADFED482A9FED2F
:1008B800482ADFED481A9FED481ADFED480A9FEDF8
:1008C800480A9FED488ADFED488A002207EE902A01
:1008D800B8EEE77A002327EE037AF0EE476AB0EE27
:1008E800476AF0EE475AB0EE475AF0EE474AB0EE84
:1008F800474AF0EE473AB0EE479AF0EE477AF0EE04
:10090800479A69EE879A0BB3012B67EE877A1DD059
:10091800022B29EE079A19D0032B63EE873A15D0DC
:10092800042B24EE074A11D0052B64EE874A0DD01C
:10093800062B25EE075A09D0072B65EE875A05D0F6
:10094800092B26EE076A08BF66EE876A01330A2B71
:10095800D7D162EEE77AE9EE827AE9EE217AE3EE20
:10096800C17AE4EE207AE4EEC07AE5EE087AE5EEA4
:10097800E87ADFED1E5AE6EE257A9FED1D6AE6EE6F
:10098800C67ADFED1C6AE7EE267A9FED1B7A77EED2
:10099800877AF5EEC07AF1EE10FA09DBB7EE007A45
:1009A800F4EEC77AF1EE10FAA8BFF0EE477A01E04C
:1009B800DFED127AE1EC017A0132652A86D1BDECCD
:1009C800048B7047880A00200AD7233CDD824647FB
:1009D800EDB21C46BE81D947ABE90648D54CD04795
:1009E800F7364F47E7F78446571156459C22CA43C6
:1009F800C980C14145F72B3F965D453B000000008B
:100A080030B500F12403044695B04030002143F886
:100A1800041B834243F8281C4FF00002F7D109ABAE
:100A280010A943F8042B99424FF0000543F8282CED
:100A3800F7D15022694620460795089510951195DB
:100A480012951395FFF792FE4FF0804320462565D7
:100A58006565A565E56525666566A366FFF720FFFC
:100A6800204615B030BD000008B50248FFF7C8FFA2
:100A780008BD00BF1C0C00205FF800F0C9EA01089F
:040000052000005780
:00000001FF
