:020000042000DA
:10000000554F5343000101000300000000000000B1
:1000100053000020A7000020750500207705002070
:100020004700002049000020790500200000000062
:1000300000000000000000000000000000000000C0
:04004000C5090020CE
:100044007047704770477047704770477047104B50
:10005400104A2DE9F041884607460021934202D018
:1000640003F8011FFAE70C4B0C4CE41AA41000250A
:100074001E46A54205D056F8253003B198470135F0
:10008400F7E74146384600F00BF8BDE8F08100BFC1
:10009400D7090020F30B002040000020440000207A
:1000A40070472DE9F0478488DFED6D7A9FED6D4A46
:1000B4009FED6D6A2312962BD8BF1D46E4B203F15F
:1000C4000103DBB206EE904AC8BF9725674C962B16
:1000D40088BF9723F8EEE66A04EB850504EB8303F7
:1000E40095ED007A66EEA76AD3ED007A604B77EE61
:1000F400C77A2DED0E8BA6EEA77A03F5CA7688B0E3
:1001040093ED7C5AF0EE477A9FED5A7AF4EEC77A73
:10011400F1EE10FAB8BFB0EE677A67EE047A93EDA9
:100124007E7AC3ED6E7AF7EE006A27EE066A03F56F
:10013400D6753446F0EE664AB0EE083AF1EE453A2A
:10014400C6EE835A0834B0EE644AA3EEA54AF0EE34
:10015400462AE7EE842AB0EE644AA5EE254AC4EDA9
:10016400082AF0EE445AB0EE464AA7EEA54AB7EE86
:10017400002A84ED094AA54276EEA46AE0D1D3EDC3
:100184007F6A9FED3D5ADFED453ADFF804E1C3EDA8
:10019400813A82EE264A01AF3C4627EE055A24EE08
:1001A400274AF0EE450AE7EEA60AD0ED007AC3ED41
:1001B400750A35EE045A32EE442AFAEEE07A83EDFB
:1001C400765A83ED802A83ED834AC3ED823AC3EDE8
:1001D400843AC3ED777AAEF11C0050F8045B44F81E
:1001E400045B8645F9D107EE102A93ED783ADFEDEA
:1001F400238ADFF8A0C0D3ED6C5A93ED6D6A93EDBA
:10020400790A93ED7A8AD3ED7B1AD3ED7D9AD3EDF7
:10021400852A9FED1BAADFED1BAA9FED1BBADFED1C
:100224001BBA77EEC37AB8EE477A01EB820287EE07
:10023400879A6546B0EE681A914200F0838133EEE6
:10024400297AB5EEC07AF1EE10FA2BDBB4EEE47A3B
:10025400F1EE10FAF7EE007AB8BFF0EE477A23E039
:100264008180803B3EC3AE373EC3AE3600F100080A
:10027400D809002049FFB84617B75136000080431B
:10028400A9BC0DBF19737F3FFAD53CBF645DA43F81
:10029400880B0020B81D0108452FE33E0000000034
:1002A400ABAA2A3E5FED037A27EE8B7A67EEAB6A40
:1002B400B0EE6ADAE7EE276A0DF10809A7EE8ADAEA
:1002C4009DED017A5FED0C7A76EEA76AFCEEC77AB3
:1002D400F8EE677A77EE677A67EEA87ABCEEE77A8B
:1002E40017EE104A7F2C84BF04F07F00C0F1800811
:1002F400B8EE477A9ABF601CA046C0F17F000CEBB1
:1003040088080CEB8000D8ED00CA77EEC77A90ED30
:10031400007A37EE6C7A98BFB7EE00CAE7EE87CA68
:100324000DF1200888BFBFEE00CA6CEE8CCA2CEE1B
:100334008DCA1FED26DAB9EC017AFCEEC77AF8EE25
:10034400677A77EE677A67EE817ABCEEE77A17EE22
:10035400104A7F2C87BF04F07F00C0F1800A601C24
:10036400A24688BFC0F17F00B8EE477A05EB8A0A3F
:1003740005EB8000DAED00CA77EEC77A90ED007ADB
:1003840037EE6C7A98BFF7EE00DAE7EE87CA88BFDB
:10039400FFEE00DA6CEEADCAC845A6EEACDACAD1FF
:1003A4005FED417AADEE27CAFCEEE57AFFEE00CAB6
:1003B400F8EE677A75EEE77A67EE817ABCEEE77A53
:1003C40017EE104A7F2C06EE904A87BF04F07F0098
:1003D400C0F18009601CA14688BFC0F17F00F8EE1F
:1003E400666A05EB800005EB890999ED007A77EEE2
:1003F400E67AD0ED006A76EEC76A98BFB7EE00DA07
:10040400A7EEA67A88BFB0EE6CDA27EE0D7AF6EE88
:10041400006A27EE267A74EEC07A20EE07DAB0EE90
:1004240066EAACEE27DABCEEC6CAB8EE4CCA36EEC3
:100434004CCA2CEE01CAFCEECC7A17EE904A7F2C03
:100444000DEE904A87BF04F07F00C0F18009601C64
:10045400A14688BFC0F17F00F8EE6DDA05EB89098B
:1004640005EB80003CEE6DCAD9ED007AD0ED00DAE0
:100474007DEEE7DA98BFF7EE006AECEE2D7A88BFDE
:10048400FFEE006A67EEA67A74EEC8DA67EE8E6A4B
:10049400F7EE007A28EE26CAADEE2DCA34EEE1DA84
:1004A40027EE0C7A66EE8C6A27EE217AACEE0D7A92
:1004B400A1EEA67AF0EE626AE7EE026A64EE662ABC
:1004C400F4EEEC6AF1EE10FAE7EE232A07DBF4EE21
:1004D400E76AF1EE10FAB8BFF0EE667A01E0FFEEDB
:1004E400007A27EEA77AF4EE006A27EEC77A1F4C4B
:1004F400E7EE267A3846FEEEE07AE1EC017A90EDFA
:10050400007AF4EC017A77EE877ABCEEE77AB8EEFB
:10051400477A77EEC77AE0EC017A8045EFD175EE41
:10052400A05A36EE056AFCEEE57A33EE093AF8EEA7
:10053400677A75EEE75AFCEEC67AF8EE677A36EE1D
:10054400676A79E6C3ED852A57F8042B46F8042B2D
:10055400B645F9D1C3ED6C5A83ED6D6A83ED783AF3
:1005640008B0BDEC0E8BBDE8F08700BF900B0020F7
:100574007047704707EE901A072800F28F80DFE873
:1005840000F0041F3A555C8D7A84F8EEE77A9FED0B
:10059400447A67EE877AF5EEC07AF1EE10FA09DB59
:1005A400B7EE007AF4EEC77AF1EE10FAA8BFF0EED7
:1005B400477A01E0DFED3B7A3B4BC3ED797A704734
:1005C400F8EEE77A9FED367A67EE877AF5EEC07A31
:1005D400F1EE10FA09DBB7EE007AF4EEC77AF1EE29
:1005E40010FAA8BFF0EE477A01E0DFED2E7A2E4B29
:1005F400C3ED7A7A7047F8EEE77A9FED297A67EED1
:10060400877AF5EEC07AF1EE10FA09DBB7EE007ADC
:10061400F4EEC77AF1EE10FAA8BFF0EE477A01E0E3
:10062400DFED207A204BC3ED7B7A70471E4A02EB44
:1006340081031B68C2F8F03170474B1E032B2DD881
:10064400DFE803F002080E14174B4FF08042C3F8A2
:10065400FC217047144B4FF07F52C3F8FC217047C4
:10066400114B4FF07D52C3F8FC2170470E4B0F4ADB
:10067400C3F8FC217047F8EEE77A9FED0D7A0A4B38
:1006840067EE877AC3ED7D7A7047F8EEE77A9FEDDF
:10069400087A054B67EE877AC3ED7E7A704700BF10
:1006A4000AD7233C00000000D80900209A99993FFA
:1006B4000820803A844641EA000313F003036DD115
:1006C400403A41D351F8043B40F8043B51F8043B11
:1006D40040F8043B51F8043B40F8043B51F8043B18
:1006E40040F8043B51F8043B40F8043B51F8043B08
:1006F40040F8043B51F8043B40F8043B51F8043BF8
:1007040040F8043B51F8043B40F8043B51F8043BE7
:1007140040F8043B51F8043B40F8043B51F8043BD7
:1007240040F8043B51F8043B40F8043B51F8043BC7
:1007340040F8043B51F8043B40F8043B51F8043BB7
:1007440040F8043B403ABDD2303211D351F8043B57
:1007540040F8043B51F8043B40F8043B51F8043B97
:1007640040F8043B51F8043B40F8043B103AEDD206
:100774000C3205D351F8043B40F8043B043AF9D257
:10078400043208D0D2071CBF11F8013B00F8013B2A
:1007940001D30B8803806046704700BF082A13D337
:1007A4008B078DD010F003038AD0C3F10403D21A4F
:1007B400DB071CBF11F8013B00F8013B80D331F883
:1007C400023B20F8023B7BE7043AD9D3013A11F803
:1007D400013B00F8013BF9D20B7803704B7843706E
:1007E4008B788370604670472DED048B47499FEDED
:1007F400483ADFED482A9FED482ADFED481A9FED7D
:10080400481ADFED480A9FED480A9FED488ADFED5C
:10081400488A002207EE902AB8EEE77A002327EEF2
:10082400037AF0EE476AB0EE476AF0EE475AB0EE4C
:10083400475AF0EE474AB0EE474AF0EE473AB0EE78
:10084400479AF0EE477AF0EE479A69EE879A0BB32F
:10085400012B67EE877A1DD0022B29EE079A19D057
:10086400032B63EE873A15D0042B24EE074A11D0EC
:10087400052B64EE874A0DD0062B25EE075A09D0C6
:10088400072B65EE875A05D0092B26EE076A08BFA9
:1008940066EE876A01330A2BD7D162EEE77AE9EE76
:1008A400827AE9EE217AE3EEC17AE4EE207AE4EE8C
:1008B400C07AE5EE087AE5EEE87ADFED1E5AE6EE58
:1008C400257A9FED1D6AE6EEC67ADFED1C6AE7EE37
:1008D400267A9FED1B7A77EE877AF5EEC07AF1EEF1
:1008E40010FA09DBB7EE007AF4EEC77AF1EE10FAEB
:1008F400A8BFF0EE477A01E0DFED127AE1EC017A6D
:100904000132652A86D1BDEC048B7047D8090020DA
:100914000AD7233CDD824647EDB21C46BE81D94747
:10092400ABE90648D54CD047F7364F47E7F784463E
:10093400571156459C22CA43C980C14145F72B3FF4
:10094400965D453B0000000030B500F124020446EA
:1009540095B04030002142F8041B824242F8281C22
:100964004FF00003F7D1E36623676367A367E36788
:10097400C4F88030C4F8843009AA10A942F8043BB2
:1009840091424FF0000542F8283CF7D150226946C5
:100994002046079508951095119512951395FFF724
:1009A40089FE4FF08043204625656565A565E565AC
:1009B40025666566A366FFF717FF204615B030BDB0
:1009C40008B50248FFF7C0FF08BD00BF6C0B00204C
:040000052000005384
:00000001FF
